:020000040800F2
:100000007006002029020008670200086902000843
:100010006B0200086D0200086F020008000000007B
:100020000000000000000000000000007102000855
:100030007302000800000000750200087702000843
:1000400079020008790200087902000879020008A4
:100050007902000879020008790200087902000894
:100060007902000879020008790200087902000884
:100070007902000879020008790200087902000874
:100080007902000879020008790200087902000864
:100090007902000879020008790200087902000854
:1000A0007902000879020008790200087902000844
:1000B0007902000879020008790200087902000834
:1000C0007902000879020008790200087902000824
:1000D0007902000879020008790200087902000814
:1000E0004905000879020008790200087902000831
:1000F00079020008790200087902000879020008F4
:1001000079020008790200087902000879020008E3
:1001100079020008790200087902000879020008D3
:1001200079020008790200087902000879020008C3
:1001300079020008790200087902000879020008B3
:1001400079020008790200087902000879020008A3
:100150007902000879020008790200087902000893
:100160007902000879020008790200087902000883
:1001700079020008790200087902000800000000F6
:10018000790200087902000800F002F800F03CF85B
:100190000AA090E8000C82448344AAF10107DA45E2
:1001A00001D100F031F8AFF2090EBAE80F0013F0F8
:1001B000010F18BFFB1A43F0010318479C0E000003
:1001C000BC0E0000103A24BF78C878C1FAD8520794
:1001D00024BF30C830C144BF04680C6070470000C1
:1001E0000023002400250026103A28BF78C1FBD840
:1001F000520728BF30C148BF0B6070471FB500F0E1
:100200001EFF1FBD10B510BD00F057F81146FFF7D7
:10021000F5FF00F029FB00F075F803B4FFF7F2FFDB
:1002200003BC00F07DF8000017481849184B9942AC
:100230003CBF50F8042B41F8042BF8D3154B16495A
:100240004FF000028B4238BF43F8042BFAD3DFF89B
:100250004C00016841F470010160BFF34F8FBFF3A0
:100260006F8F0F480047FEE7FEE7FEE7FEE7FEE779
:10027000FEE7FEE7FEE7FEE7FEE7000009480A4961
:100280000A4A0B4B7047000078100008000000205D
:1002900008000020080000207006002088ED00E023
:1002A0008901000870000020700600207002002004
:1002B00070020020704770477047754600F02CF8B8
:1002C000AE4605006946534620F00700854618B043
:1002D00020B5FFF7D3FFBDE820404FF000064FF0F8
:1002E00000074FF000084FF0000BAC46ACE8C00927
:1002F000ACE8C009ACE8C009ACE8C00921F00701CE
:100300008D46704710B50446AFF300802046BDE827
:100310001040FFF782BF000000487047080000202F
:1003200001491820ABBEFEE726000200704700001E
:100330000421C4F20101086840F48070086040F2B2
:100340000831C5F20401086840F4800008600868BC
:1003500020F470100860086820F4403008600868D5
:1003600040F480300860086820F01F000860704783
:1003700080B541F24C01C4F20201086840F400501B
:10038000086041F22C01C4F20201086840F40050F8
:100390000860086820F40050086000F049F8FFF792
:1003A000C7FF00F067F80821C5F20401086820F0D3
:1003B000010008600C22C5F20402106820F0180049
:1003C0001060106820F0200010603023C5F2040394
:1003D000186820F00F001860186820F4F8601860A2
:1003E000186840F4C0701860B023C5F204031868A0
:1003F00020F0400018601423C5F20403186820F4AC
:10040000E0101860186840F440201860106820F46C
:1004100030501060086840F001000860FFE70020DD
:10042000C5F204000068C00708B9FFE7F7E780BD20
:1004300041F24C01C4F20201086820F0010008609A
:10044000086840F0010008604FF09041086840F0F3
:100450000C0008600C21C4F60001086820F00C00B4
:1004600008602C21C4F60001086840F00200086012
:100470007047000081B00820C5F2040000688000C9
:10048000002808D5FFE70821C5F20401086820F01C
:1004900000500860FFE70821C5F20401086840F039
:1004A000805008604FF4C8600090FFE7009820B1CA
:1004B000FFE7009801380090F8E701B070470000AE
:1004C00080B500F029F841F25801C4F20201086831
:1004D00040F00050086047F20041C4F20001086893
:1004E00020F001000860086840F0380008600868E3
:1004F00020F00400086047F23C42C4F20002106899
:1005000020F007001060086840F00100086000203B
:1005100000F010F880BD00004FF09041086840F4F2
:10052000407008600C21C4F60001086820F4407097
:100530000860704781B00090009847F20841C4F20B
:100540000001086001B0704780B540F21441C4F268
:100550000101086840F40050086040F20000C2F257
:1005600000000078012821D1FFE740F26800C2F2C4
:1005700000000068B0F5706F0ED1FFE740F268012F
:10058000C2F2000140F6FF70086040F20001C2F2C2
:1005900000010020087008E040F26801C2F200018A
:1005A000086800F580700860FFE71EE040F2680010
:1005B000C2F200000068FF280DD1FFE740F2680199
:1005C000C2F200010020086040F20001C2F2000106
:1005D0000120087008E040F26801C2F200010868DA
:1005E000A0F580700860FFE7FFE740F26800C2F204
:1005F00000000068FFF79EFF80BD000080B582B05C
:1006000041F24C01C4F20201086840F004000860A5
:1006100040F60001C4F60001086820F04060086060
:1006200040F60C01C4F60001086820F04060086044
:1006300041F26001C4F20201086840F00100086064
:100640001421C4F20101086820F0700008600868F5
:1006500040F02000086040F20841C4F2010108683F
:1006600040F40050086040F20041C4F20101086803
:1006700040F4005008602820019000F0B1F8019883
:10068000002100F0C5F802B080BD000041F24C012D
:10069000C4F20201086840F0010008604FF0904188
:1006A000086820F440600860086840F40060086052
:1006B0000821C4F60001086820F44060086008685A
:1006C00040F4406008602021C4F60001086820F46E
:1006D00070000860086840F4801008600421C4F6C7
:1006E0000001086820F0200008600C21C4F6000119
:1006F000086820F4406008607047000081B041F253
:100700000801C4F20201086800F0030008600868EC
:10071000086041F20001C4F202010091086820F073
:10072000F0000860086840F020000860086840F0A9
:1007300008000860086840F001000860FFE741F227
:100740000000C4F2020000688007002801D4FFE71F
:10075000F5E701B07047000041F25801C4F2020110
:10076000086840F0010008604FF08041086820F000
:1007700010000860086840F010000860086840F049
:10078000800008602C22C4F200024FF47A601060EE
:100790001822C4F2000210684FF68F73CFF6FE7372
:1007A00018401060106840F060001060106840F061
:1007B000080010602022C4F20002106840F002001D
:1007C0001060106840F0010010603422C4F2000292
:1007D00005201060086840F00100086070470000C4
:1007E00081B08DF803009DF9030000280ED4FFE7C7
:1007F0009DF9031001F01F02012090404A094EF2BA
:100800000011CEF2000141F82200FFE701B070476D
:1008100082B08DF8070000919DF9070000280AD4E6
:10082000FFE7009800019DF907104EF20042CEF25A
:10083000000288540BE0009800019DF8071001F0B9
:100840000F014EF61452CEF200028854FFE702B0B8
:100850007047000081B0009000983421C4F200017C
:10086000086001B07047000080B582B000200190A0
:10087000FFF744FFFFF77CFDFFF708FFFFF76CFF72
:10088000FFF71EFEFFF7BAFEFFE70821C5F20401DD
:10089000086840F004000860FFE740F20030C5F24D
:1008A0000400006800F00400042801D0FFE7F4E72A
:1008B0004020C5F20400016840F26C00C2F2000062
:1008C000016090ED000AB8EEC00A9FED0B1A80EEB1
:1008D000010A9FED0A1A20EE010A10EE100A00F03C
:1008E0003DFB41EC100B00F00BF851EC100B00F04D
:1008F00047F9FFF7AFFFC8E70000804500007A45E1
:100900002DE9F0412DED020B9FED3D0B2DED028BFE
:100910009FED3D8BDDE90254C4F30A50A0F2FF368F
:10092000142E37DA002E18DA53EC102B9DED020B43
:1009300051EC100B00F070F853EC182B00F0DEF9BE
:1009400057D2002CA4BF0024254652DA24F00040E0
:10095000284318BF2E4C4CD01AE02E4820FA06F738
:1009600004EA070028431FD053EC102B9DED020B27
:1009700051EC100B00F050F853EC182B00F0BEF9BE
:1009800037D2002C03DA4FF48010F0400444BC430B
:1009900000252EE0332E07DCA6F114004FF0FF31C6
:1009A00021FA00F73D4206D19DED020BBDEC028B12
:1009B00002B0BDE8F08153EC102B9DED020B51EC21
:1009C000100B00F0D1F953EC182B00F097F910D26E
:1009D000002C0DDA142E08BF641C09D0C6F13400B7
:1009E000012101FA00F02844A84238BF641C0546E2
:1009F000BD43CDE902549DED020BD7E70000000096
:100A00009C7500883CE4377E000000000000000078
:100A10000000F0BFFFFF0F0010B591EA030F48BFC1
:100A200083F0004300F1B481841A71EB030C05D20A
:100A3000121943EB0C03001B61EB0C014FEA11543C
:100A4000A4EB135CDFF81CE11EEA430F18BF9EEA1B
:100A5000445F00F0748021EA045123EA0E0343F45A
:100A60008013DCF1200E32D322FA0CFE10EB0E00C4
:100A700023FA0CFE41EB0E01CCF1200E03FA0EFE20
:100A800010EB0E00CCF1200E51F10001B1F5801FEA
:100A900032D201EB045112FA0EF2BDE8104058BFF9
:100AA0007047401C38BF5FEA420218BF70470028F9
:100AB00014BF20F0010041F100014FEA410313F59A
:100AC000001F38BF7047A1F1C04100F011B9012AE1
:100AD00043EB0302ACF1200CDCF11F0E32BF4FF0F0
:100AE000000E23FA0CF310EB030041EB0451B4EBBE
:100AF000115FD0D0A1EB045101F58011490801EB41
:100B000004515FEA30000ED350F1000038BF12FAF2
:100B10000EFE08D1BDE81040C9E7401C38BF5FEAAF
:100B20004202CAD1C3E7BDE810404FEA410313F5C2
:100B3000001F38BF7047A1F1C04100F0D9B89EEA4C
:100B4000445F08D011EA5E0FBDE8104004BF01F019
:100B5000004100207047BDE8104070B500F07AF801
:100B600064FBBE3E0000E0FF491058BFC1F14041A8
:100B70005B1058BFC3F140438B42EFF300807047D6
:100B80004FEA1153A3F58063D3F11E03A8BFD3F13D
:100B9000200C08DB4FF0004242EAC12252EA5052D8
:100BA00032FA03F0704709420BD4102BC4BF002067
:100BB000704703F5787CBCF1FF3F05D04FF0FF3064
:100BC00070474FF00000704770B500F043F800BF69
:100BD0004992248000207047F0E7000051EA030C9E
:100BE00017D41CF5801F58BFBCF5801F00F106808C
:100BF000994218BF704708BF9042704707D711F558
:100C0000801F58BF13F5801F19D49942704789423D
:100C100070471CF5801F08D5BCF5801FF7D58B42A7
:100C200018BF704708BF824270474FF4001C1CEB8E
:100C3000410F38BF1CEB430F01D28B42704770B598
:100C400000F008F8922449004FF000514FF0805313
:100C5000FFF78ABF0EF1020E2EF0030E5EF8046B52
:100C6000364205D4012A43EB030515F5001F12D8BF
:100C7000012841EB010C1CF5001F0CD80ED14FEAE6
:100C8000D17C0CEB4C0C0CF1020C15F5001F08BFCD
:100C90004CEBD37C04E04FF0080C01E04FEAD37C2E
:100CA0000CEB4C0526FA05F606F00706B6F1040C27
:100CB00006D20EEB860CBDE870404CF0010C60478C
:100CC000DFE80CF0090B02024FF00041A1F5002112
:100CD0004FF0000070BD19461046012851EB010489
:100CE00018BFD4F5001484BF002001F0004170BD8E
:100CF0000808A0F500114FEA3101704753EA010CD2
:100D000017D41CF5801F58BFBCF5801F00F106806A
:100D10008B4218BF704708BF8242704707D713F550
:100D2000801F58BF11F5801F19D48B4270479B421A
:100D300070471CF5801F08D5BCF5801FF7D5994278
:100D400018BF704708BF904270474FF4001C1CEB5F
:100D5000430F38BF1CEB410F01D2994270470FB4CB
:100D60000CBC03BCFFF76BBF10B591EA030F81F019
:100D700000413FF559AE83F0004300F009B8000090
:100D800010B591EA030F48BF83F000433FF54CAE26
:100D9000841A71EB030C07D28CF0004C121943EB50
:100DA0000C03001B61EB0C014FEA1154A4EB135C24
:100DB000DFF8A4E11EEA430F18BF9EEA445F00F08B
:100DC000B48021EA045123EA6E035242C3EB6E035E
:100DD00038BF5B1EDCF1200E25D322FA0CFE10EB8F
:100DE0000E0043FA0CFE41EB0E01CCF1200E03FA8B
:100DF0000EFE10EB0E00CCF1200E51F1000129D4B3
:100E000001EB045112FA0EF2BDE8104058BF7047D2
:100E1000401C1CBFB2F1004F704700280CBF491C9A
:100E200020F00100704712EB020E43EB030218BFE3
:100E30004FF0010E4EEA4202ACF1200CDCF11E0E26
:100E400056D943FA0CFE10EB0E00CCF11E0E51F1F8
:100E5000FF31D5D50EF1010E12FA0EFE404141EBE5
:100E6000010101EB445C5FEA5C5C10D901EB0451C9
:100E700010EBDE7038BFBEF1004FBDE8104018BF68
:100E8000704700280CBF491C20F00100704734D285
:100E90004FEAD42C24F4006411F500111BD0B1FAF0
:100EA00081F20B3AA41AA41ED2F12003914030FA29
:100EB00003F31943904001EBCC7101EB0451002C7A
:100EC000BDE81040A8BF704701F1C04101F00041EA
:100ED0004FF000007047B0FA80F310FA03F102D12E
:100EE000BDE810407047E41A173C4805C90AE2E71C
:100EF00001EB0451BDE81040704749104FEA300043
:100F000001EB0451BDE8104002E04FF000017047D2
:100F10004A0008BF0042F8D0B2F5001F28BF704752
:100F200001F000414FF0000070479EEA445F07D097
:100F300011EA5E0FBDE8104004BF00210020704799
:100F4000BDE8104070B5FFF785FE00BF40DFF63EFC
:100F5000104683F0004170470000E0FF43004FEA75
:100F6000D30C4FEA3C0C43401FBF40070CF16051CB
:100F700013F0FE4F70471CF0006F03D10CF00041DE
:100F8000002070470CF0004343EA507040EACC0068
:100F900010B500F00EF800BF000000924FEA00010B
:100FA000FFF7A6BE4FF00041A1F500214FF0000071
:100FB00070470EF1020E2EF0030E5EF8044B244231
:100FC00004D44FEA4102B2F17F4F11D84FEA4003F7
:100FD000B3F17F4F0CD80ED14FEAD07C0CEB4C0C08
:100FE0000CF1020CB2F17F4F08BF4CEBD17C04E056
:100FF0004FF0080C01E04FEAD17C0CEB4C0324FAD3
:1010000003F404F00704B4F1040C06D20EEB840CD4
:10101000BDE810404CF0010C6047DFE80CF0070819
:1010200002024FF00040A0F5800010BD08464200CB
:1010300018BFD2F1807288BF00F0004010BDF1EE01
:10104000100A4FF6FF71C0F2C03120EA010040F0F3
:101050004070E1EE100A7047781000080000002090
:1010600008000000C40100088010000808000020EB
:1010700068060000E0010008010000000000000018
:040000050800018965
:00000001FF
